:020000040800F2
:100000007008002015020008870B00087F0B00080D
:10001000830B0008F90700080B1E00080000000011
:10002000000000000000000000000000E10D0008DA
:100030009F08000800000000310C00085D0F000858
:100040002F0200082F0200082F0200082F020008CC
:100050002F0200082F0200082F0200082F020008BC
:100060002F0200082F0200082F020008FD070008D9
:100070002F0200082F0200082F0200082F0200089C
:100080002F0200082F0200082F0200082F0200088C
:100090002F0200082F0200082F0200082F0200087C
:1000A0002F020008011200082F0200082F0200088A
:1000B0001D1300082F0200082F0200082F0200085D
:1000C0002F0200082F0200082F0200082F0200084C
:1000D0002F020008AD1A0008191B00082F020008A3
:1000E0002F0200082F0200082F0200082F0200082C
:1000F0002F0200082F0200082F0200082F0200081C
:100100002F0200082F0200082F0200082F0200080B
:100110002F0200082F0200082F0200082F020008FB
:100120002F0200082F0200082F0200082F020008EB
:1001300000F002F800F05FF80AA090E8000C82449A
:100140008344AAF10107DA4501D100F054F8AFF277
:10015000090EBAE80F0013F0010F18BFFB1A43F0A5
:1001600001031847881E0000A81E00000A444FF033
:10017000000C10F8013B13F0070408BF10F8014B06
:100180001D1108BF10F8015B641E05D010F8016B4B
:10019000641E01F8016BF9D113F0080F1EBF10F8AF
:1001A000014BAD1C0C1B09D16D1E58BF01F801CBD2
:1001B000FAD505E014F8016B01F8016B6D1EF9D555
:1001C0009142D6D37047000000230024002500266A
:1001D000103A28BF78C1FBD8520728BF30C148BFAA
:1001E0000B607047642900F07780002070471FB5CE
:1001F0001FBD10B510BD00F09FF91146FFF7F7FFC6
:1002000001F0B2FE00F0BDF903B4FFF7F2FF03BC4A
:1002100001F098FE0948804709480047FEE7FEE7DD
:10022000FEE7FEE7FEE7FEE7FEE7FEE7FEE7FEE7A6
:1002300004480549054A064B70470000610F000855
:1002400031010008700200207008002070040020B6
:1002500070040020704700000FB4044910B503AAD1
:10026000029800F03BF910BC5DF814FB5801002027
:100270002DE9F0410E460446002020622046E16848
:10028000884730B3252805D0D4E901219047206A5A
:10029000401CF2E7E168204600278847050018D097
:1002A000A5F14100192802D820354FF400673246E5
:1002B000294620462760FFF795FF40B1012804D06A
:1002C000F61D26F007060836D8E7361DD6E728467D
:1002D000DAE7206ABDE8F0812DE9F0410646002406
:1002E00010687529314616A510D0AFF3008000289C
:1002F00002DA404213A507E031688A0701D512A54A
:1003000002E0490704D511A5012401E0AFF3008004
:1003100000210A2206F1240709E0B0FBF2FCB0FB41
:10032000F2F302FB1C00303078541846491C0028B8
:10033000F3D123462A463046BDE8F04100F074B8B8
:10034000000000002D0000002B0000002000000035
:100350004FF0000200B5134694469646203922BF5E
:10036000A0E80C50A0E80C50B1F12001BFF4F7AFA9
:10037000090728BFA0E80C5048BF0CC05DF804EB8B
:10038000890028BF40F8042B08BF704748BF20F8F9
:10039000022B11F0804F18BF00F8012B70470000AE
:1003A0004FF0013C50F8042B51F8043B9A4221D104
:1003B000A2EB0C03934313EACC1317D150F8042B90
:1003C00051F8043B9A4215D1A2EB0C03934313EA74
:1003D000CC130BD150F8042B51F8043B9A4209D1AD
:1003E000A2EB0C03934313EACC13DBD04FF00000D5
:1003F000704700BFD01A01BAB1FA81F101F01801BB
:1004000022FA01F0CB40C1F12001DBB2C0B2C01A28
:100410002CFA01F3D11A914311EAC311E6D17047C6
:1004200070477047704770472DE9F0470D46994671
:100430009246044600F124080168880604D5E06964
:1004400021F01001216000E00120A84201DD471BDE
:1004500000E00027A1697A1902EB0900081AA061DF
:100460002078C00602D42046AFF30080002608E0C2
:10047000D4E901211AF806009047206A401C761C36
:1004800020624E45F4DB2078C0060AD52046AFF343
:10049000008006E0D4E9012130209047206A401C0A
:1004A0002062381EA7F10107F4DC07E0D4E901213E
:1004B00018F805009047206A401C2062281EA5F10C
:1004C0000105F3DC2046AFF300802078000602D55A
:1004D0000220BDE8F0870120FBE70000074B70B564
:1004E0000D467B4400F011F80446284600F020F841
:1004F00010B14FF0FF3070BD204670BD671A00008C
:1005000001694A1C02610878704700B58FB0CDE9D7
:1005100001310021059105497944CDE903101146C7
:100520006846FFF7A5FE0FB000BD0000E5FFFFFF26
:10053000007B00F080007047754600F029F8AE4659
:1005400005006946534620F00700854618B020B5DF
:10055000FFF76EFEBDE820404FF000064FF00007A9
:100560004FF000084FF0000B21F00701AC46ACE85B
:10057000C009ACE8C009ACE8C009ACE8C0098D46C8
:1005800070470446AFF300802046FFF73DFE0000B1
:10059000004870470C02002021B1826842F001023D
:1005A000826003E0826822F00102826070470000EE
:1005B00000B58DB00121084600F054FB2C2102A8A3
:1005C000FFF7C6FE194802901948039000200490D6
:1005D000052005904020069080200790002008907C
:1005E00009900A904FF400500B9000200C9002A943
:1005F000104800F036F9002001900B208DF804001F
:1006000001208DF8070000208DF805008DF8060008
:1006100001A800F0B9FA01220221064800F018F9F9
:100620000121044800F008F90DB000BD4C24014040
:10063000140000200800024010B50446124884420D
:1006400008D10121401500F04DFB0021601500F09C
:1006500049FB17E00D48844208D10121001500F044
:1006600041FB0021201500F03DFB0BE008488442CF
:1006700008D10121C80300F035FB00214FF40040F0
:1006800000F030FB10BD00000024014000280140B4
:10069000003C0140014600208A6802F004020AB1D1
:1006A000012000E000207047014600208A6802F027
:1006B00008020AB1012000E00020704730B5024670
:1006C0000020002350680F4C20400D790C6844EA4C
:1006D00005242043506090680B4C2040D1E902541F
:1006E0002C434D7944EA450420439060D06A20F4BD
:1006F00070000C7C641EE4B2234340EA0350D062D5
:1007000030BD0000FFFEF0FFFDF7F1FF816841F012
:10071000080181607047816841F004018160704781
:1007200000B587B00121082000F0CCFA4FF400405A
:1007300000F08CFA002006900220ADF8180000208E
:100740008DF81B0006A91C4800F082F91B48FFF732
:1007500073FF0121480200F0B5FA142101A8FFF748
:10076000F7FD002001908DF808008DF809004FF486
:10077000602003900020049001208DF8140001A94E
:100780000E48FFF79BFF01210C48FFF705FF0B48C0
:10079000FFF7BCFF00BF0948FFF786FF0028FAD12A
:1007A0000648FFF7B8FF00BF0448FFF773FF0028B3
:1007B000FAD107B000BD0000000C01400024014048
:1007C00008B5002000900121082000F07BFA2020CD
:1007D000ADF8000010208DF8030001208DF8020014
:1007E0006946044800F034F92021024800F0BBF9C2
:1007F00008BD0000000C014000BFFEE710B500215D
:10080000054800F019F8022000F008F8012102481C
:1008100000F012F810BD00000800024000F0805106
:1008200011B10349086001E00249486070470000C7
:10083000040402400000024021B1026842F00102BB
:10084000026004E002684FF6FE731A4002607047CF
:100850001AB103680B43036002E003688B43036033
:10086000704710B50022026847F6F0739A430C6A8D
:100870008B6823430C6923434C6923438C692343CE
:10088000CC6923434C6A23438C6A23431A43026096
:10089000CB6843600B6883604B68C36010BD7047D2
:1008A0003EB504460121022000F0ECF90121174871
:1008B00000F0D6FD0020009001900290ADF80600F7
:1008C000ADF8020004EB84000121C1EB400080B2CE
:1008D000ADF8040041F61F40ADF8000069460B4832
:1008E00001F04EF80821094801F015F801210748E8
:1008F00000F0C2FD0121054800F0C4FD00BF012148
:10090000024800F0E0FE0028F9D03EBD000400409F
:100910002DE9F04105466FF0040000F00BFB16488E
:1009200000681649B0FBF1F6B0B24FF47A7100FBE3
:1009300001F705FB07F04FF0E021486100208861D6
:100940000846006940F00100086100BF4FF0E02058
:10095000046904F0010018B104F480300028F5D0D7
:100960004FF0E020006920F001004FF0E021086125
:1009700000208861BDE8F0810000002000127A00AC
:1009800070B505466FF0040000F0D4FA1348006813
:100990001349B0FBF1F605FB06F04FF0E02148618A
:1009A000002088610846006940F00100086100BF2E
:1009B0004FF0E020046904F0010018B104F4803025
:1009C0000028F5D04FF0E020006920F001004FF042
:1009D000E02108610020886170BD00000000002057
:1009E00000127A0008B50121082000F06BF9002000
:1009F00000904FF48040ADF8000004208DF8030013
:100A000002208DF802006946014800F021F808BD77
:100A1000000C014008B50121082000F053F9002026
:100A200000904FF40050ADF8000010208DF8030046
:100A300002208DF802006946044800F009F84FF4DE
:100A40000051024800F08FF808BD0000000C014082
:100A50002DE9F04102460025002600200023002455
:100A6000002791F803C00CF00F0591F803C00CF0BB
:100A7000100CBCF1000F03D091F802C04CEA050540
:100A800091F800C0BCF1000F31D0146800202BE0B9
:100A90004FF0010C0CFA00F3B1F800C00CEA0306A9
:100AA0009E4220D183004FF00F0C0CFA03F7BC4399
:100AB00005FA03FC4CEA040491F803C0BCF1280FCA
:100AC00006D14FF0010C0CFA00FCC2F814C00AE089
:100AD00091F803C0BCF1480F05D14FF0010C0CFA9E
:100AE00000FCC2F810C0401C0828D1D31460B1F833
:100AF00000C0BCF1FF0F34DD546800202EE000F18F
:100B0000080C4FF0010808FA0CF3B1F800C00CEA29
:100B100003069E4221D183004FF00F0C0CFA03F71D
:100B2000BC4305FA03FC4CEA040491F803C0BCF191
:100B3000280F05D100F1080C08FA0CF8C2F814804F
:100B400091F803C0BCF1480F07D100F1080C4FF039
:100B5000010808FA0CF8C2F81080401C0828CED30F
:100B60005460BDE8F08141617047016170474FF604
:100B7000FF710180022181700421C170704700BFA4
:100B8000FEE700BFFEE7704770B5002100230F228B
:100B9000C47804B3154C246804F4E064C4F5E0643C
:100BA000210AC1F10403CA40447804FA03F18478AD
:100BB0001440214309010E4C0678A155047804F035
:100BC0001F050124AC4005786D11AD0005F1E0254D
:100BD000C5F8004109E0047804F01F050124AC4089
:100BE000044D0678761145F8264070BD0CED00E006
:100BF00000E400E080E100E002490143024A1160A4
:100C0000704700000000FA050CED00E001490861A2
:100C10007047000000000E4201460020034A1068A1
:100C200020F0E000084310607047000000700040B2
:100C3000704710B50121080700F034F80020FFF7D5
:100C4000EBFF0120FFF7E2FF10BD0000014600208E
:100C5000034A506820F44040084350607047000049
:100C60000010024029B1064A52690243044B5A61FE
:100C700004E0034A52698243014B5A617047000005
:100C80000010024029B1064AD2690243044BDA61DE
:100C900004E0034AD2698243014BDA6170470000E5
:100CA0000010024029B1064A12690243044B1A613E
:100CB00004E0034A12698243014B1A617047000045
:100CC0000010024029B1064A92690243044B9A611E
:100CD00004E0034A92698243014B9A617047000025
:100CE0000010024029B1064AD2680243044BDA6080
:100CF00004E0034AD2688243014BDA607047000087
:100D00000010024030B500210022002400232D4DA8
:100D10006D6805F00C0121B1042905D0082923D103
:100D200005E0294D056022E0284D05601FE0254DB6
:100D30006D6805F47012234D6D6805F4803402254A
:100D400005EB92421CB9224D554305600BE01D4D49
:100D50006D6805F400351DB11E4D5543056002E078
:100D60001A4D5543056002E0174D056000BF00BFF6
:100D7000144D6D6805F0F0010909174D6B5C0568AD
:100D8000DD4045600F4D6D6805F4E061090A124DC4
:100D90006B5C4568DD4085600A4D6D6805F4605107
:100DA000C90A0D4D6B5C4568DD40C560054D6D6839
:100DB00005F44041890B094D6B5CC568B5FBF3F543
:100DC000056130BD0010024000127A00001BB70020
:100DD00000093D00808D5B00A6010020B6010020C7
:100DE000704710B500F002F810BD00000CB50020EF
:100DF000019000903348006840F480303149086029
:100E000000BF3048006800F4003000900198401C9A
:100E10000190009818B90198B0F5A06FF1D1294858
:100E2000006800F4003010B10120009001E00020C3
:100E300000900098012843D12348006840F010003A
:100E4000214908600846006820F003000860084651
:100E5000006840F0020008601A484068194948607C
:100E60000846406848600846406840F48060486032
:100E70000846406820F47C1048600846406840F40A
:100E8000881048600846006840F08070086000BF25
:100E90000C48006800F000700028F9D0094840684C
:100EA00020F00300074948600846406840F002000F
:100EB000486000BF0348406800F00C000828F9D1E2
:100EC0000CBD0000001002400020024010B55F245D
:100ED0000FE020211648FFF748FE4FF48770FFF718
:100EE0004FFD20211248FFF73EFE4FF48770FFF7B9
:100EF00047FD2000A4F101018CB2EAD10220FFF7E6
:100F000007FD4FF4FA740DE020210948FFF72DFE8C
:100F10000220FFF735FD20210548FFF724FE0220BF
:100F2000FFF72EFD2000A4F101018CB2ECD110BD21
:100F3000000C0140042808D14FF0E021096941F07C
:100F400004014FF0E022116107E04FF0E021096950
:100F500021F004014FF0E02211617047704700005A
:100F600010B51348006840F00100114908600846B8
:100F70004068104908400E494860084600680E491C
:100F800008400B4908600846006820F4802008608B
:100F90000846406820F4FE0048604FF41F00886057
:100FA000FFF71FFF4FF000600449086010BD00000C
:100FB000001002400000FFF8FFFFF6FE08ED00E021
:100FC000F0B50C46154600220021068C4FF6FE7740
:100FD0003E400684028B018C4FF60C7632407E1C1C
:100FE00006EA03162E433243104EB0420ED0104E86
:100FF000B0420BD0B0F1804F08D00E4EB04205D0B9
:101000000D4EB04202D00D4EB04206D14FF6FD76E5
:10101000314044F00106314305E04FF6F5763140AA
:1010200044F00106314302830184F0BD002C0140ED
:10103000003401400004004000080040000C004063
:10104000F0B50C461546002200210026078C4FF60D
:10105000EF7C07EA0C070784028B018C4FF6FF77C1
:1010600007EA041640F6FF473A404FF6FF7707EAD3
:1010700003373A434FF6FF7707EA05273A43114F04
:10108000B8420ED0104FB8420BD0B0F1804F08D00C
:101090000E4FB84205D00E4FB84202D00D4FB842A5
:1010A00006D14FF6DF77394046F01007394305E0A7
:1010B0004FF65F77394044F01007394302830184CB
:1010C000F0BD0000002C014000340140000400404D
:1010D00000080040000C0040F0B50C461546002208
:1010E00000210026078C4FF6FF6C07EA0C070784E7
:1010F000828B018C4FF6FF7707EA04264FF60C77B8
:101100003A404FF6FF7707EA03172F433A43114F50
:10111000B8420ED0104FB8420BD0B0F1804F08D07B
:101120000E4FB84205D00E4FB84202D00D4FB84214
:1011300006D14FF6FF57394046F48077394305E032
:101140004FF2FF57394044F480773943828301845A
:10115000F0BD0000002C01400034014000040040BC
:1011600000080040000C0040F0B50C461546002277
:1011700000210026078C4EF6FF7C07EA0C07078447
:10118000828B018C4FF6FF7707EA043640F6FF4763
:101190003A404FF6FF7707EA05273A434FF6FF77C5
:1011A00007EA03373A43114FB8420ED0104FB84206
:1011B0000BD0B0F1804F08D00E4FB84205D00E4F83
:1011C000B84202D00D4FB84206D14DF6FF773940F4
:1011D00046F48057394305E047F6FF57394044F459
:1011E0008057394382830184F0BD0000002C014008
:1011F000003401400004004000080040000C0040A2
:1012000010B50121104800F067FAD8B101210E484D
:1012100000F035F90D480068401C0C49086008468C
:101220004068401C486008468068401C886008464A
:10123000C068401CC86008464068B0F57A7F01D19C
:101240000020486010BD0000002C0140F801002083
:1012500000B589B001210846FFF714FD01210420E3
:10126000FFF730FD02A8FFF782FC0320ADF808006D
:1012700004208DF80B0002A92748FFF7E9FB4FF087
:10128000804000F00BF906A800F0CCFB0020ADF880
:1012900018004FF6FF70ADF81C000020ADF81E00DE
:1012A000ADF81A0006A94FF0804000F069FB00235A
:1012B0001A4603214FF0804000F0E4F903A800F043
:1012C00073FA0620ADF8140003A94FF0804000F037
:1012D00015FA1C208DF8040001208DF807008DF808
:1012E000050003208DF8060001A8FFF74DFC03213F
:1012F0004FF0804000F0C0F801220321900700F079
:101300005CFA4FF47A60410688840121400600F0BF
:10131000B9F809B000BD00000008014010B5002474
:101320000121880700F0D8F918B10121880700F0E1
:10133000A6F80221480700F0CFF920B302214807A0
:1013400000F09DF810480068401C0F4908600F48E5
:101350000078C0B9084600680D490988884212D350
:10136000FF200C490880091D0880012007490870EA
:101370000948C16809A0FEF76FFF3220FFF790FA15
:1013800000200149086010BD6401002063010020B5
:10139000A40100203C080040F801002025640D0A4B
:1013A0000000000000B589B001210820FFF78AFC89
:1013B0000020089018208DF823004001ADF820008F
:1013C00002208DF8220008A92348FFF741FB0121E4
:1013D0000420FFF757FC0020059006900790ADF819
:1013E0001A00ADF81600FF20ADF818000B20ADF87C
:1013F000140005A9194800F0C3FA002001900290DA
:10140000039004906020ADF804000020ADF80C00BB
:101410000120ADF806000020ADF80A0001A90F4830
:1014200000F0D4F908210D4800F020FA0020ADF8B2
:101430000A0001A9094800F023FA0821074800F032
:101440005DFA0121054800F00BF80121034800F086
:1014500019F809B000BD0000000C01400008004070
:1014600021B1028842F08002028004E002884FF637
:101470007F731A4002807047CA4302827047CA4392
:101480000282704721B1028842F00102028004E02A
:1014900002884FF6FE731A400280704710B504466A
:1014A0006848844208D10121C014FFF71BFC0021C9
:1014B000E014FFF717FCC4E0B4F1804F08D101211C
:1014C0000846FFF7EFFB00210120FFF7EBFBB8E038
:1014D0005D48844208D101210220FFF7E3FB00218F
:1014E0000220FFF7DFFBACE05848844208D101211D
:1014F0000420FFF7D7FB00210420FFF7D3FBA0E077
:101500005348844208D101210820FFF7CBFB00217A
:101510000820FFF7C7FB94E04E48844208D1012120
:101520001020FFF7BFFB00211020FFF7BBFB88E076
:101530004948844208D101212020FFF7B3FB002154
:101540002020FFF7AFFB7CE04448844208D1012112
:101550004014FFF7C7FB00216014FFF7C3FB70E0E6
:101560003F48844209D10121C804FFF7BBFB002199
:101570004FF40020FFF7B6FB63E03A48844209D1FC
:1015800001210805FFF7AEFB00214FF48010FFF7A3
:10159000A9FB56E03448844209D101214805FFF7F0
:1015A000A1FB00214FF40010FFF79CFB49E02F48FE
:1015B000844208D101214020FFF774FB0021402024
:1015C000FFF770FB3DE02A48844208D101218020CA
:1015D000FFF768FB00218020FFF764FB31E025481E
:1015E000844208D101218015FFF75CFB0021A01582
:1015F000FFF758FB25E02048844209D10121080467
:10160000FFF770FB00214FF48030FFF76BFB18E011
:101610001A48844209D101214804FFF763FB0021E5
:101620004FF40030FFF75EFB0BE01548844208D111
:1016300001218804FFF756FB00214FF48020FFF7BB
:1016400051FB10BD002C0140000400400008004088
:10165000000C004000100040001400400034014025
:10166000004C01400050014000540140001800406F
:10167000001C0040002000400040014000440140A8
:1016800000480140F0B50C4615461E4600210022D8
:1016900000230189028B038C4FF6F87739402143F0
:1016A0004FF6FC473A4040F201173A434FF6DD77D8
:1016B0003B404FF6FF7707EA06172F433B43018174
:1016C00002830384F0BD02460020138A0B400BB155
:1016D000012000E00020704730B5024600200023C2
:1016E0000024158A05EA0103958905EA010413B16E
:1016F0000CB1012000E0002030BD000070B50546AF
:101700000C46244885420ED0234885420BD0B5F1C3
:10171000804F08D02148854205D02148854202D01B
:101720002048854200D100E000BF208850B92389BD
:10173000A28861882846FFF743FCE188284600F02C
:10174000F3F825E0208804280AD12389A28861883B
:101750002846FFF775FCE188284600F0EEF817E010
:10176000208808280AD12389A28861882846FFF7A3
:10177000B3FCE188284600F0EDF809E02389A2884F
:1017800061882846FFF7F0FCE188284600F0EBF876
:1017900070BD0000002C01400034014000040040F6
:1017A00000080040000C0040002101804180012120
:1017B00081800021C180018170471AB183890B4368
:1017C000838102E083898B438381704770B5002455
:1017D00000220023058C4FF6FF6635400584028CFD
:1017E0008388848B4FF68F752C404FF6FC752C4008
:1017F0000D882C434FF6FF552A400D894FF6FF7692
:1018000006EA05252A434D8806EA05252A43154D93
:10181000A84202D0144DA8421DD14FF2FF752A40B4
:101820004D894FF6FF7606EA05252A434FF6FF3528
:101830002A408D8806EA05252A434EF6FF752B407F
:101840004DF6FF752B408D8906EA05152B43CD8992
:1018500006EA05152B4383808483CD88858702841F
:1018600070BD0000002C0140003401400A460021F8
:10187000818B4FF6F7731940114381837047000045
:1018800070B5002200230024058C4EF6FF7635400B
:101890000584038C8488828B48F6FF752A404FF6B6
:1018A000FF452A400D884FF6FF7606EA05252A43B4
:1018B0004DF6FF752B400D8906EA05352B434D8803
:1018C00006EA05352B430B4DA84202D00A4DA8422B
:1018D00008D14BF6FF752C408D894FF6FF7606EA4E
:1018E00085152C4384808283CD88A0F840500384E2
:1018F00070BD0000002C0140003401400A46002168
:10190000818B4FF2FF7319404FF6FF7303EA0223F6
:1019100019438183704702884FF6F7731A4002809B
:1019200002880A4302807047028B4FF6F3731A4015
:101930000283028B0A4302837047028B4FF2FF330C
:101940001A400283028B4FF6FF7303EA01231A4306
:1019500002837047828B4FF6F3731A408283828B27
:101960000A4382837047828B4FF2FF331A4082838F
:10197000828B4FF6FF7303EA01231A438283704779
:10198000002202881D4B98420ED01D4B98420BD06E
:10199000B0F1804F08D01B4B984205D01A4B9842AB
:1019A00002D01A4B984204D14FF68F731A404B88DD
:1019B0001A43174B984207D0164B984204D04FF663
:1019C000FF431A40CB881A4302808B8883850B889B
:1019D00003850A4B98420BD0094B984208D00E4B16
:1019E000984205D00D4B984202D00D4B984201D140
:1019F0000B7A03860123838270470000002C01408C
:101A0000003401400004004000080040000C004089
:101A1000001000400014004000400140004401401C
:101A2000004801404FF6FF71818000210180C18094
:101A300041800172704700001FB504460121C802B1
:101A4000FFF740F90020019002900390ADF80600E6
:101A500004EB84004000401E80B2ADF8080041F65F
:101A60001F40ADF8040001A90F48FFF789FF0121CD
:101A70000D48FFF704FD19208DF8000001208DF8B6
:101A800003008DF8010003208DF802006846FFF77F
:101A90007BF8012211460448FFF78FFE012102481E
:101AA000FFF7F0FC1FBD0000002C014010B540F214
:101AB0002551164800F0E4F880B140F22551134852
:101AC00000F0B6F8114800F097F91149114A127860
:101AD000885410480078401C0E49087040F2244198
:101AE0000A4800F0CDF878B1084800880748001D82
:101AF000008800210648074A1278815400200549D1
:101B00000870034800F094F910BD0000003801404F
:101B1000BC0100206A01002010B540F2255139486F
:101B200000F0AEF880B140F22551364800F080F860
:101B3000344800F061F93449344A12788854334803
:101B40000078401C3149087040F224412D4800F0D3
:101B500097F8002855D02B4800882A48001D008897
:101B600000202949294A1278885428490870012000
:101B70002749087027A12448FEF712FC40B900202D
:101B8000214908704870FF2023490880091D0880FA
:101B900022A11D48FEF704FC48B900201A4908702C
:101BA00048704C201C4908800020091D08801CA199
:101BB0001548FEF7F5FB40B900201349087048703E
:101BC000154908804C20091D088016A10E48FEF713
:101BD000E7FB40B900200C49087048704FF40051F1
:101BE0001148FEF7C2FF11A10748FEF7D9FB40B923
:101BF00000200549087048704FF400510A48FEF76C
:101C0000B2FF10BD00440040DA0100206B0100204B
:101C10005C010020300000003C0800403100000062
:101C20003200000033000000000C014034000000CE
:101C300010B50022002340F66A14A14200D100BF73
:101C40000A1201249440A3B2DC43048010BD21B1E8
:101C5000828942F40052828104E082894DF6FF734A
:101C60001A408281704702460020B1F5007F00D102
:101C700000BF13880B400BB1012000E0002070472B
:101C800070B50246002400230025002040F66A16A5
:101C9000B14200D100BFC1F3421501F01F0301267C
:101CA00006FA03F3012D02D19689334006E0022D96
:101CB00002D1168A334001E0968A33400C12012685
:101CC00006FA04F41688344013B10CB1012000E088
:101CD000002070BDF0B5034600240026002500203A
:101CE00040F66A17B94200D100BF1846C1F342144A
:101CF00001F01F06012707FA06F5012C01D10C306F
:101D000004E0022C01D1103000E014301AB1076851
:101D10002F43076002E00768AF430760F0BD000093
:101D20002DE9F04786B005460E460024A24600BFC6
:101D3000A1460027B08900B100BF2F462C8A4CF67F
:101D4000FF700440F08804432C82AC894EF6F310F7
:101D50000440B08831890843718908430443AC8149
:101D6000AC8A4FF6FF400440B0890443AC8201A81E
:101D7000FEF7C8FF1F48874202D1DDF810A001E03E
:101D8000DDF80CA0A88900F4004040B10AEBCA00BD
:101D900000EB0A1031684900B0FBF1F807E00AEBEC
:101DA000CA0000EB0A1031688900B0FBF1F864202A
:101DB000B8FBF0F004012009642101FB1089A88917
:101DC00000F4004040B1322000EBC900B0FBF1F05C
:101DD00000F00700044308E0322000EB0910642102
:101DE000B0FBF1F000F00F0004432C8106B0BDE819
:101DF000F08700000038014001468888C0F30800E1
:101E00007047C1F308028280704700BFFEE7000000
:101E100010B5044600BF40210448FFF724FF002806
:101E2000F9D021460148FFF7ECFF10BD0038014012
:101E300010B5044603E02078FFF7EAFF641C207821
:101E40000028F8D110BD000010B586B0044601216D
:101E50000520FEF737FF0020059018208DF81700A9
:101E60000420ADF8140001208DF8160005A92448BF
:101E7000FEF7EEFD04208DF817000820ADF81400E1
:101E800005A91F48FEF7E4FD01214804FEF7FAFE0C
:101E9000002001900290039004900194ADF810008E
:101EA0000C20ADF80E000020ADF80C00ADF80A00D3
:101EB000ADF8080001A91348FFF732FF0020009099
:101EC00026208DF8000001208DF8030000208DF8F9
:101ED00001008DF802006846FEF756FE012240F22E
:101EE00025510848FFF7F6FE012240F2244105483B
:101EF000FFF7F0FE01210348FFF7A9FE06B010BD71
:101F0000000801400044004008B501210820FEF708
:101F1000D9FE002000904FF48050ADF80000102052
:101F20008DF8030002208DF8020069460448FEF790
:101F30008FFD4FF480510248FEF715FE08BD0000EA
:101F4000000C0140014600BF7047000000BF054A79
:101F5000128802F04002002AF9D0C2B2014B1B1DC8
:101F60001A807047004400404FF4A060FEF744FE22
:101F70004FF4E130FFF768FFFEF722FCFEF74AFD61
:101F8000FEF730FDFFF7C0FFFEF712FBFEF7C8FBC0
:101F9000FEF74FFEFFF75CF9FFF704FA0120FFF7A9
:101FA0004BFD19E000200D4908700D49C8604C2018
:101FB0000C4908800020091D08804FF48E400A4912
:101FC000088000BF054800780028FBD0FEF77EFFA0
:101FD0004FF47A70FEF764FCE4E700006301002030
:101FE000F80100203C080040A40100200C2000085B
:101FF00000000020BC0100006C010008582100080E
:10200000BC010020B4060000C80100081184A24AE7
:10201000048009010203040607080918090782124F
:1020200010B0B4CFC1081A40081AC2081E20B0B4BC
:10203000D1B908100930CCA7C6F00F82012009D70A
:10204000A2C9E4C4A3CABD3E41EA0F82021025B969
:10205000E6B8F13E58A30F82031025CBD9B6C816B7
:1020600069521182042DB5A5B4CE1423C1BF3EE23E
:10207000A60F82052225B4CECAFD161708128206C5
:10208000200C202020CEFCC1A6B5C8BCB62E8CB436
:102090001082071327D6FACDC6C6F715D3A007823C
:1020A00022901C5C33147E200E496E6A6563746F47
:1020B00072204D6F64651C73171383180C5379726B
:1020C000696E676520547970141C397B1087180974
:1020D000466C6F7720526174111C91EF0F881808BD
:1020E0004F6E6520446F73101CEA221186200B543A
:1020F0006F74616C2053686F743C49B61488200C6F
:10210000506F776572204C6576656C4C01A3118A1F
:102110002008426F6F737465723B9B1E8B100B011E
:102120009DF3038103020480032A06052A08058221
:102130000A1232D201C90E811C302E30011620281D
:102140006D6C29190901152D0102030404200906EB
:0821500007080902040608005B
:0400000508000131BD
:00000001FF
